:100000000000012031730000597300005B73000091
:100010005D7300005F73000061730000000000006A
:1000200000000000000000000000000063730000FA
:100030006573000000000000677300006973000032
:100040006B7300006B7300000D1F00006B730000EA
:100050006B7300006B7300006B7300006B73000028
:10006000B9720000A12B00006B7300006B730000DD
:100070006B7300006B7300006B730000C9230000FA
:100080006B7300006B7300006B7300006B730000F8
:100090006B7300006B7300006B7300006B730000E8
:1000A0006B7300006B7300006B7300006B730000D8
:1000B0006B7300006B730000000000000000000084
:1000C0006B7300006B7300006B7300006B730000B8
:1000D0006B7300006B7300006B7300000000000086
:1000E0000000000000000000000000000000000010
:1000F0000000000000000000000000000000000000
:1001000000000000000000000000000000000000EF
:1001100000000000000000000000000000000000DF
:1001200000000000000000000000000000000000CF
:1001300000000000000000000000000000000000BF
:1001400000000000000000000000000000000000AF
:10015000000000000000000000000000000000009F
:10016000000000000000000000000000000000008F
:10017000000000000000000000000000000000007F
:10018000000000000000000000000000000000006F
:10019000000000000000000000000000000000005F
:1001A000000000000000000000000000000000004F
:1001B000000000000000000000000000000000003F
:1001C000000000000000000000000000000000002F
:1001D000000000000000000000000000000000001F
:1001E000000000000000000000000000000000000F
:1001F00000000000000000000000000000000000FF
:10020000044B05481B1A062B02D9044B03B11847AF
:10021000704700BFBF070020BC070020000000009F
:1002200005490648091A891001EBD171491002D01D
:10023000034B03B118477047BC070020BC070020E0
:100240000000000010B5064C237843B9FFF7D8FF33
:10025000044B13B10448AFF300800123237010BD99
:10026000BC0700200000000030BB000008B5084BB0
:100270001BB108490848AFF300800848036813B968
:10028000BDE80840CCE7064B002BF9D09847F7E7CC
:1002900000000000C007002030BB0000B8070020AD
:1002A00000000000134B002B08BF114B9D46A3F527
:1002B000803A00218B460F461148124A121A07F065
:1002C000FDFF0D4B002B00D098470C4B002B00D0AE
:1002D00098470020002104000D000B4807F0D4FED1
:1002E00007F01AFF2000290003F044F907F0E6FEAA
:1002F00000000800000001200000000000000000D5
:10030000BC070020E00F0020E580000080B483B02F
:1003100000AF78604FF0A04318460C37BD465DF83B
:10032000047B704780B584B000AF78600846114602
:100330001A460346FB700B46BB7013467B703B1D91
:100340001846FFF7E3FFF8607A68F978BB785B003E
:1003500019437B789B0019433B7E1B0219433B7F6B
:100360001B041943FB6802F5E07243F8221000BF3A
:100370001037BD4680BD80B584B002AF78600023E1
:100380000193002300930023012201217868FFF7E5
:10039000C9FF00BF0837BD4680BD80B584B000AF3F
:1003A00078603B1D1846FFF7B1FFF8607B680122BB
:1003B00002FA03F31946F86800F04FF800BF10374F
:1003C000BD4680BD80B584B000AF78603B1D184647
:1003D000FFF79CFFF8607B68012202FA03F31946DD
:1003E000F86800F049F800BF1037BD4680BD80B501
:1003F00084B000AF78603B1D1846FFF787FFF860B8
:10040000FB68D3F80435BB60BB68DA437B68012125
:1004100001FA03F31A40FB68C3F808257B68012240
:100420009A40BB681A40FB68C3F80C2500BF103720
:10043000BD4680BD80B582B000AF786039603B6852
:10044000002B03D17868FFF7BDFF02E07868FFF763
:10045000A4FF00BF0837BD4680BD80B483B000AFA5
:10046000786039607B683A68C3F8082500BF0C37AC
:10047000BD465DF8047B704780B483B000AF786000
:1004800039607B683A68C3F80C2500BF0C37BD465D
:100490005DF8047B7047000080B582B000AF7860E3
:1004A000054A7B6813441B7800211846FFF7C2FFFA
:1004B00000BF0837BD4680BDE0A8000080B582B00F
:1004C00000AF7860054A7B6813441B780121184609
:1004D000FFF7B0FF00BF0837BD4680BDE0A80000B1
:1004E00080B582B000AF00237B6005E07868FFF73D
:1004F000E5FF7B6801337B607B68032BF6D900BF87
:100500000837BD4680BD000080B582B000AF78607E
:10051000054A7B6813441B781846FFF768FF00BF45
:100520000837BD4680BD00BFE0A8000080B582B09E
:1005300000AF00237B6009E0094A7B6813441B7805
:100540001846FFF718FF7B6801337B607B68032B3D
:10055000F2D9FFF7C5FF00BF0837BD4680BD00BF19
:10056000E0A8000080B586B000AF78600023BB81B2
:1005700000233B617B687B6107F10C031A46002175
:1005800044F2010000F018F800BF1837BD4680BDE6
:1005900080B400AFBFF34F8F0549054BDB6803F410
:1005A000E062044B1343CB60BFF34F8F00BFFDE706
:1005B00000ED00E00400FA0580B584B000AFF860FB
:1005C000B9607A60064B1B6803F00103002B00D072
:1005D000FFDEFFF7DDFF00BF1037BD4680BD00BF67
:1005E000F0ED00E080B485B000AF78607B689B6878
:1005F000FB607B68DA68FB68D31A18461437BD467F
:100600005DF8047B704780B483B000AF78600B4620
:10061000FB707B681A687B68DB68796889880B40A7
:100620001344FA781A707B68DB685A1C7B68DA60BE
:1006300000BF0C37BD465DF8047B704780B485B0C1
:1006400000AFF8600B467A607B81FB681A68FB6834
:1006500099687B890B44F96889880B4013441A78A0
:100660007B681A7000BF1437BD465DF8047B704785
:1006700080B582B000AF786039603A680021786850
:10068000FFF7DCFF7B689B685A1C7B689A6000BFA1
:100690000837BD4680BD80B485B000AFF860B96052
:1006A0001346FB80BB68002B01D10E2319E0FB88A9
:1006B000002B05D0FB885A1EFB881340002B01D06D
:1006C00009230EE0FB68BA681A60FB88013B9AB206
:1006D000FB689A80FB6800229A60FB680022DA605F
:1006E000002318461437BD465DF8047B704780B57B
:1006F00082B000AF78600B46FB707868FFF772FF3E
:1007000002467B689B889A4206D8FB78194678682F
:10071000FFF779FF002300E0042318460837BD46A1
:1007200080BD80B582B000AF786039607868FFF72F
:1007300059FF0346002B05D039687868FFF798FF0A
:10074000002300E0052318460837BD4680BD80B46D
:1007500085B000AF78607B689B68FB607B68DA6877
:10076000FB68D31A18461437BD465DF8047B704702
:1007700080B586B000AF786039607B681B78012B4C
:1007800004D0022B38D0002B47D05CE07B685B683C
:100790001B7819462E48FFF7AAFF78617B69002B6A
:1007A0000AD001233B737B693B612A4B1B6807F12D
:1007B0000C02104698470DE02548FFF7C8FF034696
:1007C000002B07D000233B73224B1B6807F10C0260
:1007D000104698471E48FFF7BAFF02461C4B9B88FD
:1007E0009A4205D801221C491C4801F0F9F82AE078
:1007F0001B4B01221A7026E002233B737B68DB68E7
:100800003B6101221449154801F0EAF8114B1B68BD
:1008100007F10C021046984715E012491248FFF7FD
:1008200080FF0346002B05D101220E490B4800F042
:10083000FDFE07E003233B73064B1B6807F10C0228
:100840001046984700BF00BF1837BD4680BD00BFA7
:10085000E4070020D8070020E00700200000002067
:10086000E1070020DC070020F4070020B0B58EB0BF
:1008700000AFF860B9607A60FB703F4A7B68136034
:10088000BB68002B01D1072372E0BB681968BB6805
:100890005B689BB21A463948FFF7FDFE78637B6BB5
:1008A000002B01D07B6B63E0BB689968BB68DB6899
:1008B0009BB21A463248FFF7EEFE78637B6B002B43
:1008C00001D07B6B54E02F4B07F114041D460FCD74
:1008D0000FC495E80F0084E80F00FB685B69FB62BA
:1008E000FB681B7C002B14BF01230023DBB287F8BD
:1008F0002830FB7887F83030FB685B7C002B01D018
:100900000E2300E0002387F82930FB68DB68FB61D9
:10091000FB689B683B62FB681B68BB61FB685B68AC
:100920007B6107F11403184A1946184800F046FD88
:1009300078637B6B002B01D07B6B19E0144B00229A
:100940001A70FB681B68B3F1FF3F10D097F8313085
:1009500083F00103DBB2002B02D00C4801F0E2F877
:1009600001220C49094801F03BF8034600E000234E
:1009700018463837BD46B0BDD8070020E407002030
:10098000F4070020E4A80000710700000000002028
:10099000E1070020E007002080B586B000AF786056
:1009A000104B1B78FB7579680F48FFF7BAFE38616A
:1009B000FB7D002B10D00B4B00221A7001220B493B
:1009C0000B4801F00DF8F860FB68BB60BB68002BBA
:1009D00002D0B868FFF7C6FD3B6918461837BD4618
:1009E00080BD00BFE1070020E4070020E0070020F1
:1009F0000000002080B584B000AF0346FB71FB7996
:100A000019461148FFF773FEF860FB68002B15D1FB
:100A10000E4800F059FE034683F00103DBB2002BC1
:100A20000CD00B490848FFF77CFE0346002B05D18C
:100A300001220749054800F0F9FDF860FB681846F7
:100A40001037BD4680BD00BFF40700200000002025
:100A5000DC07002080B586B000AFF860B9607A602E
:100A600000237B6109E0BB685A1CBA601B781846FA
:100A7000FFF7C0FF7B6901337B617A697B689A422B
:100A8000F1DB7B6818461837BD4680BD80B584B061
:100A900000AFF860B9607A6000BFB868FFF77CFF0C
:100AA0000346052BF9D0012318461037BD4680BDFB
:100AB00080B483B000AF0346FB71094997F9073052
:100AC0005B09FA7902F01F02012000FA02F241F8F4
:100AD000232000BF0C37BD465DF8047B704700BF84
:100AE00000E100E080B483B000AF0346FB71094928
:100AF00097F907305B09FA7902F01F02012000FA2A
:100B000002F2603341F8232000BF0C37BD465DF888
:100B1000047B704700E100E080B483B000AF03467F
:100B20003960FB7197F90730002B0BDA0D49FB791F
:100B300003F00F03043B3A68D2B25201D2B20B4425
:100B40001A7609E0084997F907303A68D2B252019B
:100B5000D2B20B4483F8002300BF0C37BD465DF8CA
:100B6000047B704700ED00E000E100E080B582B05A
:100B700000AF03460A46FB711346BB71BA7997F979
:100B8000073011461846FFF7C7FF97F90730184698
:100B9000FFF7A8FF97F907301846FFF789FF00BF56
:100BA0000837BD4680BD80B485B000AF78600B4685
:100BB0007B807B887A68134400221A607B887A687D
:100BC00013441B68FB60FB6800BF1437BD465DF82B
:100BD000047B704780B483B000AF78600B467B80A5
:100BE0007B887A6813441B68002B14BF0123002301
:100BF000DBB218460C37BD465DF8047B704780B405
:100C000083B000AF786039607B683A68C3F804232A
:100C100000BF0C37BD465DF8047B704780B483B0DD
:100C200000AF786039607B68D3F804233B681340D9
:100C3000002B14BF01230023DBB218460C37BD463E
:100C40005DF8047B704780B483B000AF7860396092
:100C50007B683A68C3F8082300BF0C37BD465DF8CF
:100C6000047B704780B485B000AF78607B68D3F8B0
:100C70008034FB607B68FA68C3F88024FB68184600
:100C80001437BD465DF8047B704780B483B000AF75
:100C900078607B680422C3F8002500BF0C37BD468E
:100CA0005DF8047B704780B485B000AFF860B96030
:100CB0007A60FB687A68C3F81425FB68BA68C3F8E1
:100CC0000C2500BF1437BD465DF8047B704780B427
:100CD00085B000AFF860B9607A60FB68BA68C3F8A5
:100CE0000825FB687A68C3F8102500BF1437BD4695
:100CF0005DF8047B704780B483B000AF78607B6898
:100D0000D3F81835DBB218460C37BD465DF8047BC6
:100D1000704780B483B000AF78600B46FB70FA7800
:100D20007B68C3F81C2500BF0C37BD465DF8047B0B
:100D3000704780B483B000AF78600B46FB70FB78DF
:100D40007A68134401221A6000BF0C37BD465DF873
:100D5000047B704780B483B000AF78600B46FB70B3
:100D60001346BB70FA78BB781343DBB21A467B6834
:100D7000C3F86C2500BF0C37BD465DF8047B704797
:100D800080B483B000AF786039607B683A68C3F89C
:100D9000242500BF0C37BD465DF8047B704780B446
:100DA00085B000AF78600B467B807B887A681344FF
:100DB00000221A607B887A6813441B68FB60FB681A
:100DC00000BF1437BD465DF8047B704780B483B024
:100DD00000AF78600B467B807B887A6813441B6881
:100DE000002B14BF01230023DBB218460C37BD468D
:100DF0005DF8047B704780B483B000AF78603960E1
:100E00007B68D3F800223B681A437B68C3F8002252
:100E100000BF0C37BD465DF8047B704780B483B0DB
:100E200000AF786039607B68D3F800223B68DB4311
:100E30001A407B68C3F8002200BF0C37BD465DF83E
:100E4000047B704780B483B000AF786039607B6802
:100E50003A68C3F8042300BF0C37BD465DF8047B35
:100E6000704780B483B000AF786039607B683A68BF
:100E7000C3F8082300BF0C37BD465DF8047B7047FC
:100E800080B485B000AF78607B68D3F88034FB60B5
:100E90007B68FA68C3F88024FB6818461437BD469F
:100EA0005DF8047B704780B483B000AF78607B68E6
:100EB0000822C3F8002500BF0C37BD465DF8047B4F
:100EC000704780B485B000AFF860B9607A60FB68A5
:100ED000BA68C3F80C25FB687A68C3F8142500BF0C
:100EE0001437BD465DF8047B704780B485B000AF11
:100EF000F860B9607A60FB68BA68C3F80825FB68D7
:100F00007A68C3F8102500BF1437BD465DF8047B2E
:100F1000704780B483B000AF78600B46FB70FB78FD
:100F20007A68134401221A6000BF0C37BD465DF891
:100F3000047B704780B483B000AF78600B46FB70D1
:100F40001346BB70FA78BB781343DBB21A467B6852
:100F5000C3F86C2500BF0C37BD465DF8047B7047B5
:100F600080B483B000AF786039607B683A68C3F8BA
:100F7000242500BF0C37BD465DF8047B704780B464
:100F800085B000AFF860B9601346FB71BA68FB68C2
:100F9000C3F84425FA79FB68C3F8482500BF143725
:100FA000BD465DF8047B704780B483B000AF7860C5
:100FB0007B68D3F84C3518460C37BD465DF8047B8A
:100FC000704780B485B000AFF860B9601346FB711C
:100FD000BA68FB68C3F83425FA79FB68C3F838258A
:100FE00000BF1437BD465DF8047B704780B483B002
:100FF00000AF78607B68D3F83C3518460C37BD46A7
:101000005DF8047B704780B485B000AF78607B6882
:101010001B0BFB7397F90F3018461437BD465DF86C
:10102000047B704780B483B000AF78607B6803F0C6
:101030006043B3F1005F0CBF01230023DBB218460D
:101040000C37BD465DF8047B704780B483B000AFB9
:1010500078604FF0A04318460C37BD465DF8047B1E
:10106000704780B584B000AF7860084611461A46D4
:101070000346FB700B46BB7013467B703B1D184646
:10108000FFF7E3FFF8607A68F978BB785B001943F3
:101090007B789B0019433B7E1B0219433B7F1B045B
:1010A0001943FB6802F5E07243F8221000BF1037C5
:1010B000BD4680BD80B584B002AF78600023019347
:1010C000002300930023012201217868FFF7C9FF64
:1010D00000BF0837BD4680BD80B584B002AF7860E0
:1010E0000B46FB70FA78002301930023009313460C
:1010F000002200217868FFF7B4FF00BF0837BD4623
:1011000080BD80B584B000AF78603B1D1846FFF706
:101110009CFFF8607B68012202FA03F31946F86825
:1011200000F004F800BF1037BD4680BD80B483B026
:1011300000AF786039607B683A68C3F8082500BF63
:101140000C37BD465DF8047B7047000080B582B067
:1011500000AF786039603B681B68B3F1FF3F09D08E
:101160003B681B681846FFF7CCFF3B681B681846B6
:10117000FFF7A0FF3B685B68B3F1FF3F05D03B681A
:101180005B6800211846FFF7A7FF7B681B79474A79
:101190005B0113441C331B78002B41D07B681A6819
:1011A0003B689B6919461046FFF7DAFE7B681868B2
:1011B0003B68597D3B681B7D1A46FFF7BBFE7B6889
:1011C00018683B6819683B685B681A46FFF779FE48
:1011D0003B681B7D012B64D13B689B68B3F1FF3FEB
:1011E00005D03B689B6800211846FFF775FF3B68F8
:1011F000DB68B3F1FF3F09D03B68DB681846FFF7B7
:1012000080FF3B68DB681846FFF754FF7B6818686F
:101210003B68D9683B689B681A46FFF766FE40E06A
:101220007B681A683B689B6919461046FFF7A8FD62
:101230007B6818683B68597D3B681B7D1A46FFF741
:1012400089FD7B6818683B6819683B685B681A46CB
:10125000FFF729FD3B681B7D012B22D13B689B6872
:10126000B3F1FF3F05D03B689B6800211846FFF7AC
:1012700033FF3B68DB68B3F1FF3F09D03B68DB68B5
:101280001846FFF73EFF3B68DB681846FFF712FF82
:101290007B6818683B68D9683B689B681A46FFF70B
:1012A00016FD00BF0837BD4680BD00BF0408002002
:1012B00080B582B000AF78600B46FB707B681B790D
:1012C0002C4A5B0113441C331B78002B2ED07B6807
:1012D0001B684FF488711846FFF761FD7B681B6837
:1012E0004FF490711846FFF75AFD7B681B684FF466
:1012F00092711846FFF753FD7B681B684FF4A2718B
:101300001846FFF74CFD7B681B681B491846FFF722
:1013100099FD7B681B681846FFF775FE03461A4661
:10132000FB7819461046FFF721FC1FE07B681B681D
:101330004FF48E711846FFF736FC7B681B684FF43C
:10134000A2711846FFF72FFC7B681B680B491846F3
:10135000FFF755FC7B681B681846FFF754FE0346F1
:101360001A46FB7819461046FFF700FC00BF083705
:10137000BD4680BD0408002010030200800002006A
:1013800080B582B000AF78607B681B790A4A5B0148
:1013900013441C331B78002B05D07B681B68184650
:1013A000FFF781FD04E07B681B681846FFF76DFCC2
:1013B00000BF0837BD4680BD0408002080B586B058
:1013C00000AFF860B9607A60FB681B795B011E4A68
:1013D00013447B6100233B617B69DB7E002B03D0E0
:1013E00008233B613B692BE0BB685A7F7B691A7716
:1013F000B968F868FFF7AAFE7B697A685A60BB682B
:101400001A697B691A607B695B68002B05D0BB6831
:101410001B7F1946F868FFF74BFFF868FFF7B0FF2E
:101420007B690022DA757B6900221A767B690022CB
:101430009A757B690122DA767B6900229A763B698C
:1014400018461837BD4680BD0408002080B584B01A
:1014500000AF786039604FF48E717868FFF7A3FBB6
:101460003B689B683A68928A92B213441B78FB737C
:101470003B689B8A9BB201339AB23B689A82FB7BA2
:1014800019467868FFF745FC00BF1037BD4680BDA0
:1014900080B584B000AF78607B681B795B01354A0A
:1014A0001344BB600023FB607B681B684FF48E71A4
:1014B0001846FFF778FB7B681B6808211846FFF782
:1014C00038FC7B681B68B9681846FFF7BFFFBB682C
:1014D0005B68002B48D11FE000BF7B681B684FF49E
:1014E0008E711846FFF776FB034683F00103DBB2EB
:1014F000002B05D0BB689B8A9BB2B3F5807FECD1F3
:10150000BB689B8A9BB2B3F5807F05D07B681B6864
:10151000B9681846FFF79AFFBB689B8A9AB2BB6806
:101520009B7D9BB29A42D7D3BB689B8A9BB2B3F593
:10153000807F02D10F23FB6013E000BF7B681B6834
:101540004FF48E711846FFF745FB034683F0010305
:10155000DBB2002BF2D17B681B680C211846FFF729
:10156000E8FBBB6800229A75FB6818461037BD4639
:1015700080BD00BF0408002080B586B000AF786051
:101580007B681B795B01284A13443B6100237B6124
:101590007B681B684FF490711846FFF700FC7B686E
:1015A0001B684FF4AC711846FFF7F9FB7B681868AD
:1015B0003B6999683B699B7D1A46FFF7E0FC7B68B5
:1015C0001B6808211846FFF7A4FC3B695B68002BE9
:1015D00025D17B681B684FF490711846FFF7F6FB26
:1015E0000346FB737B681B684FF4AC711846FFF72A
:1015F000EDFB0346BB73FB7B83F00103DBB2002BE7
:1016000005D0BB7B83F00103DBB2002BE1D1BB7BB8
:10161000002B01D00F237B613B6900229A757B6907
:1016200018461837BD4680BD0408002080B586B036
:1016300000AFF860B9601346FB71FB681B795B0172
:10164000204A13447B61FB681B791E4A5B011344EB
:101650001C331B78002B0CD0B868FFF7E3FC034663
:1016600083F00103DBB2002B03D010233B613B6905
:1016700024E0F86800F028F80346002B03D011237B
:101680003B613B691AE07B69FA799A757B69BA68B4
:101690009A607B6900229A82FB681B79094A5B0188
:1016A00013441C331B78002B04D0F868FFF764FF49
:1016B000034603E0F868FFF7EBFE034618461837C9
:1016C000BD4680BD0408002080B483B000AF7860C0
:1016D0007B681B79074A5B01134416331B78002B88
:1016E00014BF01230023DBB218460C37BD465DF85A
:1016F000047B70470408002080B582B000AF78609A
:101700007B681B684FF492711846FFF74CFA7B68B0
:101710001B684FF484711846FFF745FA7B681B6815
:1017200000211846FFF705FB00BF0837BD4680BD06
:1017300090B583B000AF786039603B68DB7D002BEB
:1017400008D14FF484717868FFF72DFA7868FFF7B5
:10175000D2FA16E04FF484717868FFF724FA3B68F8
:10176000DB683A68527ED2B29C187868FFF7C3FAF9
:10177000034623703B685B7EDBB20133DAB23B6821
:101780005A760C37BD4690BD80B588B000AFF86082
:10179000B96011461A460B46FB711346BB71FB68D4
:1017A0001B795B01474A1344FB61FB699B7E83F015
:1017B0000103DBB2002B08D0BB7983F00103DBB25D
:1017C000002B02D0F868FFF797FFFB695B68002BDE
:1017D00069D1FB681B684FF4A2711846FFF7E3F963
:1017E000FB681B684FF492711846FFF7F3F9034644
:1017F000FB76FB681B684FF484711846FFF7EAF923
:101800000346BB76FB681B684FF4A2711846FFF7CE
:10181000E1F903467B76BB7E83F00103DBB2002B4C
:101820000BD07B7E83F00103DBB2002B05D0FB7E67
:1018300083F00103DBB2002BD2D1FB7E002B0FD152
:101840007B7E002B0CD1FB681B68F9691846FFF7FB
:101850006FFFFB69DA7DFB695B7EDBB29A42BFD822
:10186000FB690022DA75FB7E002B03D003237B612A
:101870007B6922E07B7E002B03D00F237B617B6999
:101880001BE0FB699B7E002B06D0FB681B680021D8
:101890001846FFF74EFA0DE0FB681B680421184656
:1018A000FFF747FA06E0FB681B684FF40171184622
:1018B000FFF7A5F900237B617B6918462037BD46F9
:1018C00080BD00BF0408002080B586B000AFF8607E
:1018D000B96011461A460B46FB711346BB710023D3
:1018E0007B61FB681B684FF488711846FFF757FA55
:1018F000FB681B684FF4A2711846FFF750FAFB68AB
:101900001B68FA79B9681846FFF75BFBBB7983F06F
:101910000103DBB2002B06D0FB681B6800211846D0
:10192000FFF7F7FA05E0FB681B6820211846FFF770
:1019300062FAFB681B79294A5B01134404331B6874
:10194000002B3FD1FB681B684FF488711846FFF7E6
:101950003DFA0346FB74FB681B684FF4A2711846FE
:10196000FFF734FA0346BB74FB681B684FF49271AF
:101970001846FFF72BFA03467B74FB7C83F00103C8
:10198000DBB2002B0BD0BB7C83F00103DBB2002B5E
:1019900005D07B7C83F00103DBB2002BD2D1FB6846
:1019A0001B790E4A5B011344173300221A707B7CAB
:1019B000002B01D003237B61BB7C002B09D00F23BC
:1019C0007B6106E0FB681B684FF404711846FFF763
:1019D00039FA7B6918461837BD4680BD04080020D7
:1019E00080B588B000AFF860B9601346FB71FB6842
:1019F0001B795B014A4A1344BB61FB681B79484A67
:101A00005B0113441C331B78002B0CD0B868FFF724
:101A100009FB034683F00103DBB2002B03D0102344
:101A20007B617B6978E00023FB77BB695B68002BF7
:101A300017D0FB681B793A4A5B0113441C331B78AF
:101A4000002B07D0FB681B684FF404711846FFF7A2
:101A500008FA06E0FB681B684FF401711846FFF7AF
:101A6000F2F8BB69DB7D002B25D0BB691B7E002B08
:101A70001FD0BB695B68002B17D0FB681B79284A15
:101A80005B0113441C331B78002B07D0FB681B68D9
:101A90004FF404711846FFF7D5F906E0FB681B68A0
:101AA0004FF401711846FFF7AAF811237B617B6997
:101AB00032E00123FB77FB7F83F00103DBB2002BD5
:101AC0000CD0BB69FA79DA75BB69BA68DA60BB69B0
:101AD00000225A76BB6900221A7605E0BB69BA6813
:101AE0001A61BB69FA791A76FB681B790C4A5B01AB
:101AF00013441C331B78002B07D0FB7FFA79B9689D
:101B0000F868FFF7E1FE034606E0FB7FFA79B96863
:101B1000F868FFF739FE034618462037BD4680BDFA
:101B20000408002080B582B000AF78607B681B7924
:101B3000104A5B0113441C331B78002B16D17B68C1
:101B40001B790C4A5B0113441A331B7883F00103A1
:101B5000DBB2002B0AD07868FFF7CEFD7B681B79DB
:101B6000044A5B0113441A3301221A7000BF08377C
:101B7000BD4680BD0408002080B588B000AFF86085
:101B80000B467A60FB7201233B74FB7A3B767B68E1
:101B90007B61FB685B68FA68116807F11002104608
:101BA000984700BF2037BD4680BD80B586B000AFE6
:101BB00078600B46FB7000233B72FB783B747B68BC
:101BC0009B68FB607B6800229A757B685B687A681B
:101BD000116807F108021046984700BF1837BD4644
:101BE00080BD80B588B000AF786039604FF4007177
:101BF0007868FFF713F80346002B38D04FF4927142
:101C00007868FEF7E7FF0346002B30D04FF492715F
:101C10007868FEF7C8FF4FF401717868FFF713F892
:101C20003B689B7E83F00103DBB2002B03D00421D1
:101C30007868FFF77EF802233B727868FFF712F8A6
:101C400003467B613B68DB7D3B743B68DB68FB6084
:101C50003B680022DA753B6800221A763B685B68B5
:101C60003A68116807F108021046984754E00421C9
:101C70007868FEF7D3FF0346002B4DD04FF48471F4
:101C80007868FEF7A7FF0346002B45D039687868CF
:101C9000FFF74EFD3B68DA7D3B685B7EDBB29A4224
:101CA0003AD13B681B7E002B1AD03B68DB68FB6196
:101CB0003B685B7EFB763B681A7E3B68DA753B6867
:101CC0001A693B68DA603B6800221A763B6800229A
:101CD0005A76FB7EFA6919463868FFF74DFF1BE01C
:101CE0003B689B7E83F00103DBB2002B03D0042111
:101CF0007868FFF71EF84FF401717868FEF7A3FFCC
:101D00003B680022DA753B685B7ED9B23B68DB68D2
:101D10001A463868FFF730FF4FF48E717868FEF787
:101D200059FF0346002B1BD03B689B8A9AB23B6845
:101D30009B7D9BB29A4204D239687868FFF786FB94
:101D40000EE04FF48E717868FEF72DFF3B689B7DA7
:101D5000002B05D03B689B7D19463868FFF725FFAF
:101D60004FF4A2717868FEF735FF0346002B1CD0B4
:101D70004FF4A2717868FEF716FF3B689B7E002B3C
:101D800003D000217868FEF7D4FF3B68DB7D002B91
:101D90000BD03B680022DA753B685B7ED9B23B68AA
:101DA000DB681A463868FFF7E7FE00BF2037BD46FC
:101DB00080BD80B588B000AF786039604FF4927113
:101DC0007868FFF703F80346002B23D04FF4927195
:101DD0007868FEF7E4FF02233B727868FFF750F85B
:101DE00003467B617868FFF701F90346DBB23B7479
:101DF0003B68DB68FB603B680022DA753B680022C9
:101E00001A763B685B683A68116807F10802104669
:101E100098473DE04FF488717868FEF7D7FF034696
:101E2000002B35D04FF488717868FEF7B8FF7868DA
:101E3000FFF7DCF80346FB773B68DB7DFA7F9A42CD
:101E400026D13B681B7E002B18D03B68DB68BB614A
:101E500020217868FEF7E2FF3B681A7E3B68DA755E
:101E60003B681A693B68DA603B6800221A76FB7FA0
:101E7000BA6919463868FFF77FFE09E03B6800221F
:101E8000DA753B68DA68FB7F19463868FFF774FE3D
:101E90004FF4A2717868FEF799FF0346002B16D025
:101EA0004FF4A2717868FEF77AFF3B68DB7D002B68
:101EB0000DD03B680022DA757868FFF797F8034683
:101EC000D9B23B68DB681A463868FFF755FE4FF415
:101ED00090717868FEF77AFF0346002B11D04FF41B
:101EE00090717868FEF75BFF3B689B7D002B08D004
:101EF0007868FFF759F80346DBB219463868FFF7F0
:101F000054FE00BF2037BD4680BD000080B500AF45
:101F1000074B1B7F002B04D005490648FFF749FFFC
:101F200003E003490348FFF75CFE00BF80BD00BF2C
:101F3000040800200020004080B483B000AF0346B6
:101F4000FB71094997F907305B09FA7902F01F0222
:101F5000012000FA02F241F8232000BF0C37BD46F1
:101F60005DF8047B704700BF00E100E080B483B0FF
:101F700000AF0346FB71094997F907305B09FA790D
:101F800002F01F02012000FA02F2603341F8232020
:101F900000BF0C37BD465DF8047B704700E100E0F0
:101FA00080B485B000AF7860254BFB607B68002B68
:101FB00040D0244B1A68F9687B6800BF00BF00BF9F
:101FC00000BF00BF00BF00BF00BF8A422FD000BFCC
:101FD00000BF00BF00BF00BF00BF00BF00BF00BF09
:101FE00000BF00BF00BF00BF00BF00BF00BF00BFF9
:101FF00000BF00BF00BF00BF00BF00BF00BF00BFE9
:1020000000BF00BF00BF00BF00BF00BF00BF00BFD8
:1020100000BF00BF00BF00BF00BF00BF00BF00BFC8
:1020200000BF00BF00BF00BF00BF00BF00BF013B3B
:10203000C3D17B6000BF1437BD465DF8047B704799
:102040000024F4004407002080B582B000AF78601F
:102050007B684FF47A7202FB03F31846FFF7A0FF88
:1020600000BF0837BD4680BD80B483B000AF0346D3
:10207000FB71144B0022C3F80821124B0222C3F853
:102080000025104B104AC3F814250E4B0F4AC3F815
:102090000C250C4B0E4AC3F810250A4B0D4AC3F809
:1020A0000825084B0122C3F80022064AFB791B04CD
:1020B00043F08073C2F8043500BF0C37BD465DF8AD
:1020C000047B704700F000402C0800203C090020F1
:1020D0003C0A00201400002080B400AF0C4B00220A
:1020E000C3F800250A4B0222C3F80823094A094B0A
:1020F000D3F8003523F08073C2F80035054B4FF458
:102100000032C3F8082500BFBD465DF8047B704768
:1021100000F0004000F0014080B400AF084B002206
:10212000C3F80421064B01221A6000BF044BD3F808
:102130000431002BFAD000BFBD465DF8047B704728
:1021400000F0004080B586B000AFC823FB710020CE
:10215000FFF78AFF3F4AFB79537000237B610AE057
:102160007B69D9B23B4A7B69134403330A461A7030
:102170007B6901337B61FA797B699A42F0DCFFF776
:10218000CBFF00233B6108E0324A3B691344033331
:1021900042221A703B6901333B61FA793B699A42EA
:1021A000F2DC2D4B2D4AC3F80C252B4B294AC3F8E2
:1021B0001025294A284BD3F8043543F00103C2F80F
:1021C0000435FFF7A9FF244BD3F80034012B03D1CA
:1021D000234806F0E3FC02E0224806F0DFFC01237E
:1021E000FB730023BB6015E0FB7B1A49BA680A4405
:1021F000033212781146BA6891420CBF01220022C4
:10220000D2B21340002B14BF01230023FB73BB6821
:102210000133BB60FA79BB689A42E5DCFB7B002B9B
:1022200003D0114806F0BAFC02E0104806F0B6FCF4
:10223000094BD3F80831002B06D00D4806F0AEFC50
:10224000054B0022C3F80821FFF746FF00BF1837EF
:10225000BD4680BD3C09002000F000403C0A002043
:1022600004A9000020A900003CA9000058A9000012
:102270006CA9000080B586B000AF3A601A460346EC
:10228000FB710B46BB7113467B711023FB73464AEF
:10229000FB7B537000237B6108E0434A7B69134456
:1022A000033300221A707B6901337B61FA7B7B69FF
:1022B0009A42F2DC3D4B0022C3F800223B4B002245
:1022C000C3F81021394B01221A6100BF374BD3F8F4
:1022D0001031002BFAD0354B0022C3F810217B7946
:1022E000002B04D1314B0722C3F8002203E02F4B0F
:1022F0000122C3F800222D4AFB79C2F80C352B4A83
:10230000BB79C2F81035294A3B68C2F80835274B1B
:10231000274AC3F81425254B264AC3F81825234B12
:102320000322C3F83425BB79002B01D0032B02D143
:1023300000233B6101E001233B613B69DBB21846AE
:10234000FFF792FE194B1C4AC3F804257B79012B39
:1023500009D0022B15D0002B18D1184B4FF08072EA
:10236000C3F8002512E0154B154AC3F89825134B06
:10237000144AC3F89C25114B4FF40032C3F80425CE
:1023800004E0104B0222C3F8042300BF074B0122D4
:102390001A607B79002B02D00A4B01221A6000BF21
:1023A0001837BD4680BD00BF3C090020001000402A
:1023B00008011000FF0003033C0A002000F0014068
:1023C00004F1004000F0004080B500AF054B002252
:1023D000C3F804210A20FFF7E3FD024B01221A6033
:1023E00000BF80BD00F0004080B582B000AF7860D3
:1023F0007B681B78022B05D17B685B681846FEF76B
:10240000B1F808E07B681B78012B04D17B685B681E
:102410001846FEF7A7F800BF0837BD4680BD00008C
:1024200080B400AF0B4B01221A604FF080430022B2
:10243000C3F800214FF0804301221A6000BF4FF023
:102440008043D3F80031002BF9D000BFBD465DF8C2
:10245000047B704700D0004080B500AF6E4806F0A6
:102460009DFB6E4806F09AFB6D4806F097FB6D48A1
:1024700006F094FB6C4806F091FB6C4806F08EFB6E
:102480006B4806F08BFB6B4806F088FB6A4806F049
:1024900085FB6A4806F082FB694806F07FFB0A204C
:1024A000FFF7D2FD674806F079FB674806F076FB38
:1024B000664806F073FB664806F070FB654806F058
:1024C0006DFB654806F06AFB644806F067FB6448EC
:1024D00006F064FB634806F061FB634806F05EFBB0
:1024E0000A20FFF7B1FD614806F058FB604806F08E
:1024F00055FB604806F052FB5F4806F04FFB5F4813
:1025000006F04CFB5E4806F049FB5E4806F046FBD1
:102510000A20FFF799FD5C4806F040FB5B4806F097
:102520003DFB5B4806F03AFB5A4806F037FB0A20B1
:10253000FFF78AFD584806F031FB4D4806F02EFBA8
:102540004C4806F02BFB4C4806F028FB534806F09D
:1025500025FB534806F022FB0A20FFF775FD514882
:1025600006F01CFB424806F019FB424806F016FB39
:10257000414806F013FB414806F010FB404806F0C6
:102580000DFB494806F00AFB0A20FFF75DFD4748AE
:1025900006F004FB464806F001FB464806F0FEFA4A
:1025A000454806F0FBFA454806F0F8FA0A20FFF71E
:1025B0004BFD434806F0F2FA424806F0EFFA424873
:1025C00006F0ECFA0A20FFF73FFD404806F0E6FA75
:1025D0003F4806F0E3FA3F4806F0E0FA0A20FFF72A
:1025E00033FD234806F0DAFA224806F0D7FA2248EB
:1025F00006F0D4FA294806F0D1FA204806F0CEFABF
:102600000A20FFF721FD1E4806F0C8FA324806F0FE
:10261000C5FA00BF80BD00BF84A9000090A90000DA
:10262000D0A90000F4A900000CAA000038AA0000FC
:1026300054AA00006CAA000084AA0000B8AA0000F6
:10264000F8AA000018AB000030AB000050AB00004F
:1026500068AB000098AB0000C8AB0000DCAB00002A
:10266000F0AB000008AC000024AC000040AC00005F
:1026700060AC000078AC00008CAC00009CAC0000AA
:10268000C0AC0000E0AC000000AD00002CAD0000CC
:102690004CAD00005CAD000080AD00009CAD0000C2
:1026A000C0AD0000DCAD0000FCAD00001CAE0000C1
:1026B00038AE00005CAE000084AE0000B4AE000096
:1026C000D8AE000000AF00002CAF00005CAF0000EF
:1026D00088AF0000B8AF0000ECAF000080B582B05A
:1026E00000AF1E4806F05AFAFB1D19461C4806F0BA
:1026F00081FAFB792F2B0CD9FB79322B09D8FB7986
:102700001946184806F04AFA00BFFB79312B09D167
:1027100004E00721134806F041FAE5E7124B0022D6
:102720001A7013E0FB79302B03D10F4B02221A7081
:102730000CE0FB79322B03D10B4B01221A7005E020
:10274000FB79332B02D1084B03221A70074806F09D
:1027500025FA00BF0837BD4680BD00BF0CB00000A1
:1027600064B0000068B000000800002070B00000F5
:1027700080B582B000AF2A4806F010FAFB1D19465A
:10278000284806F037FAFB792F2B1DD9FB79372B18
:102790001AD8FB791846FEF72DF900BFFB79303BBC
:1027A000062B31D801A252F823F000BFD127000038
:1027B000D9270000E1270000E9270000F1270000E9
:1027C000F9270000012800000720FEF713F9D5E7DC
:1027D000154B04221A701BE0134B00221A7017E0ED
:1027E000114BFC221A7013E00F4BF8221A700FE005
:1027F0000D4BF4221A700BE00B4BF0221A7007E01D
:10280000094BEC221A7003E0074BD8221A7000BF64
:10281000064806F0C3F900BF0837BD4680BD00BFBB
:1028200074B0000064B000002408002070B0000004
:1028300080B584B000AF944806F0B0F9934B1B7894
:10284000032B1BD801A252F823F000BF652800001B
:102850006D2800005D280000752800008C4806F0F7
:102860009DF90BE08B4806F099F907E08A4806F0DD
:1028700095F903E0894806F091F900BF884B1B7871
:10288000EC2B2CD0EC2B06DC042B10D0D82B2AD030
:10289000002B10D02BE0F42B19D0F42B02DCF02B02
:1028A00019D024E0F82B0ED0FC2B08D01FE07D4877
:1028B00006F074F91BE07C4806F070F917E07B48DD
:1028C00006F06CF913E07A4806F068F90FE07948F1
:1028D00006F064F90BE0784806F060F907E0774805
:1028E00006F05CF903E0764806F058F900BF754B36
:1028F0001B681946744806F051F9744B1B68194659
:10290000734806F04BF9734B1B681946724806F082
:1029100045F9724BD3F80035002B01D0704B00E025
:10292000704B1946704806F039F9704806F036F9D0
:1029300010216F4806F032F90023FB6015E0FB68B8
:1029400003F01F03002B05D16A4806F027F90A207F
:10295000FFF77AFB684AFB6813441B7819466748FF
:1029600006F01CF9FB680133FB60FB680F2BE6D90E
:10297000604806F013F9624806F010F905215C483A
:1029800006F00CF90023BB6016E0BB6803F01F03E0
:10299000002B05D1574806F001F90A20FFF754FB38
:1029A000554ABB68134410331B781946534806F048
:1029B000F5F8BB680133BB60BB68042BE5D94D4813
:1029C00006F0ECF84F4806F0E9F80821484806F010
:1029D000E5F800237B6016E07B6803F01F03002B03
:1029E00005D1444806F0DAF80A20FFF72DFB424AE9
:1029F0007B68134419331B781946404806F0CEF81B
:102A00007B6801337B607B68072BE5D9394806F08A
:102A1000C5F83D4806F0C2F8FD21354806F0BEF87D
:102A200000233B6016E03B6803F01F03002B05D139
:102A3000304806F0B3F80A20FFF706FB334A3B683C
:102A4000134403331B7819462C4806F0A7F83B685B
:102A500001333B603B68FC2BE5D9264806F09EF825
:102A60004FF08043D3F8183403F48033002B01D0A7
:102A70001B4B00E01B4B1946254806F08FF800BFA2
:102A80001037BD4680BD00BFB4B000000800002074
:102A9000C4B00000E8B000000CB1000030B100008C
:102AA0002408002058B1000078B1000098B100005F
:102AB000B8B10000D8B10000F8B1000018B20000B1
:102AC00038B200002808002058B200000C00002096
:102AD00074B200001000002090B2000000F000402E
:102AE000B0B20000B4B20000B8B20000D4B200002E
:102AF000ECB2000070B0000014000020F8B200003A
:102B000000B3000018B3000030B300003C0A0020FE
:102B100048B3000080B500AF124B01225A60114B40
:102B20000122DA600F4B4FF0FF32C3F808230D4B40
:102B30004FF48032C3F804230A4B0122C3F8002269
:102B4000084B1622C3F81025064B0022C3F8402577
:102B50000920FFF70BFA0920FFF7EEF901231846C9
:102B600080BD00BF0090004080B400AF054B012243
:102B7000DA60044B01221A6000BFBD465DF8047B99
:102B8000704700BF0090004080B400AF034B0122AB
:102B90005A6000BFBD465DF8047B7047009000405E
:102BA00080B500AF0020FDF7AFFC4FF080424FF042
:102BB0008043D3F81C35DB43C2F81C35024B00229E
:102BC000C3F8402100BF80BD0090004080B584B0B4
:102BD00000AF78600023FB600EE007F108031946A0
:102BE000094806F007F8FB687A681344BA68D2B25D
:102BF0001A70FB680133FB60FB680F2BEDDD00BF33
:102C00001037BD4680BD00BF64B300002DE9F04120
:102C100096B00EAFF861FB691B789E46FB690133E5
:102C20001B789C46FB6902331B789846FB6903338B
:102C30001B781846FB6904331B781C46FB69053377
:102C40001B781D46FB6906331B781E46FB6907335C
:102C50001B78BB61FB6908331B787B61FB69093317
:102C60001B783B61FB690A331B78FB60FB690B3304
:102C70001B78BB60FB690C331B787B60FB690D33F1
:102C80001B781946FB690E331B781A46FB690F3314
:102C90001B780C930B920A917A680992BA68089291
:102CA000FA6807923A6906927A690592BB690493B9
:102CB000039602950194009043466246714604488B
:102CC00005F06CFF00BF2037BD46BDE8F08100BFB6
:102CD00068B3000080B586B000AF3B1D00221A60CB
:102CE0005A609A60DA600023FB7520E00023BB7510
:102CF00017E0FA7DBB7DF87DB97D800007F1180EE5
:102D00007044014414390978C943C9B2920007F1EB
:102D1000180002441344143B0A461A70BB7D013369
:102D2000BB75BB7D032BE4D9FB7D0133FB75FB7DBC
:102D3000032BDBD90023FB7520E00023BB7517E0D4
:102D4000FA7DBB7DF87DB97D800007F1180E7044D7
:102D5000014414390978C943C9B2920007F1180037
:102D600002441344143B0A461A70BB7D0133BB7501
:102D7000BB7D032BE4D9FB7D0133FB75FB7D032B6E
:102D8000DBD90023FB7520E00023BB7517E0FA7D3B
:102D9000BB7DF87DB97D800007F1180E70440144B9
:102DA00014390978C943C9B2920007F118000244E6
:102DB0001344143B0A461A70BB7D0133BB75BB7DBF
:102DC000032BE4D9FB7D0133FB75FB7D032BDBD9A2
:102DD0000023FB7520E00023BB7517E0FA7DBB7D67
:102DE000F87DB97D800007F1180E70440144143954
:102DF0000978C943C9B2920007F11800024413448C
:102E0000143B0A461A70BB7D0133BB75BB7D032B97
:102E1000E4D9FB7D0133FB75FB7D032BDBD900235C
:102E2000FB7520E00023BB7517E0FA7DBB7DF87DC4
:102E3000B97D800007F1180E7044014414390978F7
:102E4000C943C9B2920007F1180002441344143B6D
:102E50000A461A70BB7D0133BB75BB7D032BE4D9D9
:102E6000FB7D0133FB75FB7D032BDBD900BF1837DE
:102E7000BD4680BD80B58CB000AF6B4805F08EFEBE
:102E8000002387F82F300020FFF7EEF8674B102261
:102E90005A7001233B60B6E007F1170319466448F6
:102EA00005F0A8FEFB7D653B112B00F2AB8001A273
:102EB00052F823F08D2F000005300000053000008F
:102EC00005300000192F0000053000000B2F000016
:102ED0000530000005300000972F0000053000008D
:102EE000FD2E0000FD2F0000AD2F0000053000007A
:102EF0000530000005300000F52F00004D48FFF7B9
:102F000065FE4C48FFF782FE7DE04B48FFF75EFE12
:102F10004948FFF77BFE76E03B1D1846FFF756FE5B
:102F20003B1D1846FFF772FE0023BB620FE0BB6A31
:102F30000B3307F13002134413F82C1C3E4ABB6AD2
:102F4000134410330A461A70BB6A0133BB62BB6A72
:102F5000042BECDDFB7CDB09DAB2374B1A7600235D
:102F60007B620FE07B6A033307F13002134413F8EE
:102F70002C1C314A7B6A134419330A461A707B6A47
:102F800001337B627B6A072BECDD3CE0FFF7A2FE9E
:102F9000FFF7C2F837E03B461946284805F02AFEFD
:102FA0003B681946264805F0F9FD2CE000233B62FA
:102FB00018E00023FB610BE00023BB6102E0BB696A
:102FC0000133BB61BB69052BF9DDFB690133FB6193
:102FD000FB697F2BF0DDFFF77DFEFFF79DF83B6A75
:102FE00001333B623B683A6A9A42E2D3154805F0E6
:102FF000D5FD08E01448FFF709FE04E0012387F837
:103000002F3000E000BF97F82F3083F00103DBB2D0
:10301000002B7FF441AFFFF75FF80C4805F0BEFDD1
:1030200000BF3037BD4680BD64B400003C090020BD
:1030300064B000003F09002014000020BCB3000071
:10304000C0B30000E8B300003F0A002080B40000D5
:1030500080B588B002AFB9607A603B600346FB730D
:10306000FB7B092B00F2878001A252F823F000BFFE
:1030700099300000A7300000C7300000DD300000AC
:10308000F3300000093100001F310000353100002D
:103090004B310000613100003B6A3A687968B868DA
:1030A00001F035F96AE000237B6107E03A6879684E
:1030B000B86801F09EFB7B6901337B617A693B6AEA
:1030C0009A42F3D35AE03B6A01932E4B00930323B9
:1030D0003A687968B86801F0FCFE4FE03B6A0193FA
:1030E000294B009303233A687968B86801F0F1FE30
:1030F00044E03B6A0193254B009303233A687968C7
:10310000B86801F0E6FE39E03B6A0193204B00937A
:1031100003233A687968B86801F0DBFE2EE03B6A69
:1031200001931C4B009303233A687968B86801F057
:10313000D0FE23E03B6A0193174B009303233A68C8
:103140007968B86802F013F818E03B6A0193134BF2
:10315000009303233A687968B86802F008F80DE034
:103160003B6A01930E4B009303233A687968B86871
:1031700001F0FDFF02E00B4805F010FD00BF18371D
:10318000BD4680BDC5450000795400005155000082
:103190007F5C00005B5F0000956100003D64000003
:1031A000F968000098B4000090B591B002AF002318
:1031B00087F8373007F1240300221A605A609A60BA
:1031C000DA6007F1140300221A605A609A60DA602C
:1031D0003B1D00221A605A609A60DA6001233B604E
:1031E000002387F836307E4805F0D8FCE8E007F188
:1031F000350319467B4805F0FDFC97F83530303B28
:10320000422B00F2DC8001A252F823F019330000B7
:10321000193300001933000019330000193300007E
:10322000193300001933000019330000193300006E
:1032300019330000BF330000BF330000BF3300006C
:10324000BF330000BF330000BF330000BF330000B6
:10325000BF330000BF330000BF330000BF330000A6
:10326000BF330000BF330000BF330000BF33000096
:10327000BF330000BF330000BF330000BF33000086
:10328000BF330000BF330000BF330000BF33000076
:10329000BF330000BF330000BF330000BF33000066
:1032A000BF330000BF330000BF330000BF33000056
:1032B000BF330000BF330000BF330000BF33000046
:1032C000BF330000BF330000BF330000BF33000036
:1032D000BF330000BF330000BF330000BF33000026
:1032E0005D330000BF330000BF330000BF33000078
:1032F000BF330000BF33000047330000BF3300007E
:10330000BF33000077330000AD33000031330000DD
:10331000B73300008D33000097F83530303B87F825
:10332000363097F8363019462F4805F037FC47E01D
:1033300007F114031846FFF749FC07F11403184678
:10334000FFF764FC3CE007F124031846FFF73EFC5E
:1033500007F124031846FFF759FC31E007F1240474
:103360003A1D07F1140197F8360001230093234614
:10337000FFF76EFE24E03B4619461C4805F03AFC78
:103380003B6819461A4805F009FC19E03B6807F14B
:1033900024043A1D07F1140197F8360000932346E0
:1033A000FFF756FE134805F0F9FB09E03B1D1846F0
:1033B000FFF72CFC04E0012387F8373000E000BF62
:1033C00097F8373083F00103DBB2002B7FF40FAFA7
:1033D000094805F0E3FB00BF3C37BD4690BD00BF88
:1033E000B0B4000064B00000CCB40000BCB3000076
:1033F000C0B30000E8B30000F4B4000090B48AB099
:1034000000AF786007F10C0300221A605A609A60DE
:10341000DA6000233B6248E0002387F8273034E07D
:10342000002387F8263027E097F8272097F82630E2
:1034300097F8270097F82610800007F12804204409
:1034400001441C39087897F827108C0097F826104B
:1034500021440C467968214409784140C9B2920060
:1034600007F12800024413441C3B0A461A7097F8DF
:103470002630013387F8263097F82630032BD3D92E
:1034800097F82730013387F8273097F82730032B38
:10349000C6D90023FB6102E0FB690133FB61FB69D4
:1034A000632BF9DD3B6A01333B623B6A062BB3DDDC
:1034B00000BF2837BD4690BC7047000080B586B07D
:1034C00000AF1C4805F06AFB0023FB753B1D002282
:1034D0001A605A609A60DA601EE007F11603194616
:1034E000154805F087FBBB7D712B11D0732B0AD0DB
:1034F000702B10D13B1D1846FFF768FB3B1D18468B
:10350000FFF784FB08E03B1D1846FFF777FF03E059
:103510000123FB7500E000BFFB7D83F00103DBB2FC
:10352000002BDAD1054805F039FB00BF1837BD463E
:1035300080BD00BF10B5000064B0000030B50000D1
:1035400080B582B000AF78607B681B78002B04D018
:1035500003F0DAFD7B6800221A707B685B78002B31
:1035600004D0FEF7B9FD7B6800225A7000BF08370F
:10357000BD4680BDB0B5A6B002AF002387F88F303E
:10358000002387F88E30002387F86430002387F803
:103590006530FEF745FFC64B07F14C041D460FCDC5
:1035A0000FC495E8030084E80300C24B7B6001234D
:1035B000BB60C14BFB604FF400733B61391D07F1E9
:1035C0004C000723BD4AFDF751F9F866FB6EBB6658
:1035D000BB6E002B02D0B86EFCF7C4FFFCF7A6FF51
:1035E000B74805F0DBFA0820FEF7A6FC0920FEF735
:1035F000A3FC0F20FEF7A0FC62B60020FCF75EFFE4
:103600000120FCF75BFF0220FCF746FF0320FCF7DC
:1036100043FF07F13C0300221A605A609A60DA60A7
:1036200007F12C0300221A605A609A60DA6007F1F1
:103630001C0300221A605A609A60DA600123BB61A1
:1036400001237B6104F0B6F9FB1C19469D4805F087
:10365000D1FAFB78483B322B00F2428201A252F8A9
:1036600023F000BFF9390000E13A0000E13A000020
:103670000D390000E13A0000E13A0000773800001F
:10368000E13A00008F380000E13A0000E13A000022
:103690002D3900003D3A0000E13A00008339000076
:1036A000E13A0000E13A0000E13A0000E13A0000AE
:1036B000E13A0000E13A0000E13A0000E13A00009E
:1036C000E13A0000E13A0000313700006F370000B6
:1036D000AD370000B5370000F337000003380000B5
:1036E0001B380000DB3A00002938000037380000A2
:1036F000E13A00004538000063380000A5380000BA
:10370000553A0000633A0000713A00007F3A000029
:103710008D3A0000933A0000A13A0000A73A000059
:1037200071380000AD3A0000BB3A0000C93A000011
:10373000654805F033FA6549654805F05BFA634B67
:103740001B68502B0FDC614B1B68002B0BDB5F4BA6
:103750001B6819465F4805F021FA00BF97F88E30C4
:1037600087F88F30BDE15C4805F018FAE0E75B4868
:1037700005F014FA5A49564805F03CFA584B1B68B4
:10378000502B0FDC514B1B68002B0BDB544B1B6881
:103790001946504805F002FA00BF97F88E3087F8B6
:1037A0008F309EE14C4805F0F9F9E0E7012387F8F6
:1037B0008F3096E14B4805F0F1F94B49444805F04C
:1037C00019FA494B1B68002B0FDD474B1B68632B15
:1037D0000BDC454B1B6819463E4805F0DFF900BF7E
:1037E00097F88E3087F88F307BE1404805F0D6F9A6
:1037F000E0E703F089FCFEF76FFC002387F88E30CA
:103800006FE13B4A3A4BD3F80035002B01D000233F
:1038100000E00223C2F8003563E1364B1B7C013324
:10382000DAB2344B1A745CE1022387F88F303248E5
:1038300005F0B4F955E1032387F88F302F4805F0E0
:10384000ADF94EE197F88E30002B03D197F88F3009
:10385000002B03D02A4805F0A1F942E1FEF772FCE3
:103860003FE1FEF73BFF97F88E3087F88F3038E165
:10387000FFF79AFC35E107F118031946214805F0D6
:10388000B9F9BB691946204805F088F929E107F123
:103890002C031846FFF79AF907F12C031846FFF797
:1038A000B5F91EE107F12C031846FFF7AFF918E14F
:1038B00044B700003C0B0020400B0020E92300002F
:1038C00050B5000064B000005CB50000280800207E
:1038D00064B3000094B500009CB50000C0B50000C2
:1038E0000C000020F4B500001000002028B60000F5
:1038F00000F00040140000204CB6000074B6000038
:10390000A8B60000BCB30000C0B3000007F13C0340
:103910001846FFF75BF907F13C031846FFF776F905
:1039200007F13C03184604F0ADF8DAE00023C7F8CD
:10393000883020E00020FCF7E7FD07F11C0207F1CA
:103940003C0107F12C03184604F082FB0020FCF731
:10395000DBFD0023C7F8843004E0D7F8843001335E
:10396000C7F88430D7F88430FE2BF6D9D7F88830E2
:103970000133C7F88830BB69D7F888209A42D9D379
:10398000AFE00023C7F8803030E00020FCF7BCFD3A
:1039900007F11C0207F13C0107F12C03184604F063
:1039A00057FB0020FCF7B0FD0023FB670BE0002372
:1039B000BB6702E0BB6F0133BB67BB6FFE2BF9D95E
:1039C000FB6F0133FB67D7F88010C04BA3FB0123CB
:1039D0005A0913469B001344DB00CA1AFB6F9A4234
:1039E000E5D8D7F880300133C7F88030BB69D7F805
:1039F00080209A42C9D374E00020FCF785FD0023A3
:103A00007B6713E007F12C0207F11C0311461846EF
:103A100003F0F4FF00233B6702E03B6F01333B6799
:103A20003B6FFE2BF9D97B6F01337B67BB697A6FE4
:103A30009A42E7D30020FCF767FD52E007F1140338
:103A40001946A34805F0D6F87B691946A14805F048
:103A5000A5F846E0042387F88F309F4805F09EF8CC
:103A60003FE0FEF785FE97F88E3087F88F3038E01C
:103A7000052387F88F30994805F090F831E0082346
:103A800087F88F30964805F089F82AE0FEF7D0FED7
:103A900027E0062387F88F30924805F07FF820E072
:103AA000FFF7E8F91DE0FFF709FD1AE0072387F8A3
:103AB0008F308D4805F072F813E0092387F88F30B6
:103AC0008A4805F06BF80CE0FFF75EF8002387F8F2
:103AD0008F30874805F062F803E0FEF7BDFC00E098
:103AE00000BF97F88F30013B082B00F2EC8001A259
:103AF00052F823F0193B0000473B0000793B0000DF
:103B0000AB3B0000D93B00000B3C00004D3C0000EB
:103B1000793C0000A93C000007F164031846FFF758
:103B20000FFD744B1878744B1978744B1B68DBB21B
:103B30001A4603F0F5FA97F88F3087F88E30002395
:103B400087F88F30C0E007F164031846FFF7F8FCF0
:103B5000012387F86530674B1878674B1978674BF6
:103B60001A680123FEF786FB97F88F3087F88E30AE
:103B7000002387F88F30A7E007F164031846FFF7AA
:103B8000DFFC012387F865305A4B18785A4B1978B7
:103B90005A4B1A680223FEF76DFB97F88F3087F8AF
:103BA0008E30002387F88F308EE007F164031846CB
:103BB000FFF7C6FC4F4B18784F4B19784F4B1B68DB
:103BC000DBB21A4603F0D0FA97F88F3087F88E30C0
:103BD000002387F88F3077E007F164031846FFF77A
:103BE000AFFC012387F86530424B1878424B1978B7
:103BF000424B1A680023FEF73DFB97F88F3087F899
:103C00008E30002387F88F305EE007F1640318469A
:103C1000FFF796FC374B1878374B1978374B1B68F2
:103C2000DAB2374B1B68DCB2364B1B68DBB2009351
:103C3000234603F0DBFA012387F8643097F88F30CE
:103C400087F88E30002387F88F303DE007F164035A
:103C50001846FFF775FC284B1A78284B1B68DBB217
:103C60001946104603F0A6FA97F88F3087F88E3081
:103C7000002387F88F3027E01F4B18781F4B1B68F5
:103C8000D9B21F4B1B68DAB21E4B1B68DBB203F0C4
:103C9000E3FA012387F8643097F88F3087F88E3085
:103CA000002387F88F300FE0FEF734FFFEF75CFF4C
:103CB000002387F8643097F88F3087F88E30002320
:103CC00087F88F3000E000BFBEE400BFCDCCCCCC85
:103CD000BCB30000C0B30000C8B600004CB6000082
:103CE000E0B60000ECB60000F8B6000010B7000027
:103CF0002CB700002408002008000020280800201D
:103D00000C0000201000002080B485B000AF0346F6
:103D1000FB71FB79FB73FB7B5B00FB7300233B7345
:103D20001B237B73FB79DB09DBB207F11002134421
:103D300013F8042CFB7B5340FB73FB7B18461437B2
:103D4000BD465DF8047B704780B483B000AF034686
:103D5000FB71FB79034AD35C18460C37BD465DF80E
:103D6000047B70473800002080B487B000AFF86053
:103D7000B9607A6000237B6114E07B69FA681344C0
:103D80007A69F9680A4411787A6810017A690244FC
:103D90001046BA68024412784A40D2B21A707B695F
:103DA00001337B617B690F2BE7DD00BF1C37BD460C
:103DB0005DF8047B704780B485B000AF78603960EF
:103DC0007B681B78FB733B681A787B681A703B68CA
:103DD000FA7B1A7000BF1437BD465DF8047B70474C
:103DE00080B487B000AFF860B9607A603B60FB6870
:103DF0001B78FB75BB681A78FB681A707B681A78A9
:103E0000BB681A703B681A787B681A703B68FA7D49
:103E10001A7000BF1C37BD465DF8047B704780B543
:103E200082B000AF78607B68581C7B68591D7B6846
:103E300003F109027B680D33FFF7D2FF7B68D81CC2
:103E40007B6803F10F017B6803F10B027B6807338A
:103E5000FFF7C6FF7B689A1C7B680A331946104639
:103E6000FFF7A9FF7B689A1D7B680E331946104641
:103E7000FFF7A1FF00BF0837BD4680BDB0B588B0D1
:103E800000AF78600023BB61DBE0BB699C00BB69CD
:103E90009B001A467B6813441B781846FFF734FFD3
:103EA00003461D46BB699B0001337A6813441B78A7
:103EB0001846FFF729FF03466B40DAB2BB699B0047
:103EC000013379680B441B785340DAB2BB699B001D
:103ED000023379680B441B785340DAB2BB699B000C
:103EE000033379680B441B785340DAB207F120039F
:103EF000234403F8182CBB699B005C1CBB699B0026
:103F00001A467B6813441D78BB699B0001337A68AD
:103F100013441B781846FFF7F7FE03466B40DDB2EB
:103F2000BB699B0002337A6813441B781846FFF77D
:103F3000EBFE03466B40DAB2BB699B000233796843
:103F40000B441B785340DAB2BB699B00033379689A
:103F50000B441B785340DAB207F12003234403F8E3
:103F6000182CBB699B009C1CBB699B001A467B6894
:103F700013441A78BB699B00013379680B441B78A2
:103F80005340DDB2BB699B0002337A6813441B784F
:103F90001846FFF7B9FE03466B40DDB2BB699B00D4
:103FA00003337A6813441B781846FFF7ADFE0346C7
:103FB0006B40DAB2BB699B00033379680B441B7812
:103FC0005340DAB207F12003234403F8182CBB69ED
:103FD0009B00DC1CBB699B001A467B6813441B7862
:103FE0001846FFF791FE03461A46BB699B00194627
:103FF0007B680B441B785340DAB2BB699B000133EA
:1040000079680B441B785340DAB2BB699B000233DA
:1040100079680B441B785340DDB2BB699B000333C6
:104020007A6813441B781846FFF76EFE03466B4010
:10403000DAB207F12003234403F8182CBB690133DB
:10404000BB61BB69032B7FF720AF0023BB611CE082
:104050000023FB6113E0BB699A00FB6913441A4615
:104060007B681344BA699100FA690A4407F1200198
:104070000A4412F8182C1A70FB690133FB61FB69C2
:10408000032BE8DDBB690133BB61BB69032BDFDDBB
:1040900000BF2037BD46B0BD80B584B000AF7860AA
:1040A0000123FB720023FB600DE0FB687A68134478
:1040B000FA7A1A70FB7A1846FFF726FE0346FB725F
:1040C000FB680133FB60FB68092BEEDD00BF103796
:1040D000BD4680BD80B588B000AF7860396007F11B
:1040E00008031846FFF7D8FF0023FB610AE0FB69CD
:1040F0003A681344FA6979680A4412781A70FB69BD
:104100000133FB61FB690F2BF1DD1023FB6172E0D2
:104110000023BB6110E0FB691A1FBB6913441A46F8
:104120003B681344197807F11402BB6913440A462B
:104130001A70BB690133BB61BB69032BEBDDFB6903
:1041400003F00F03002B35D1FB69033B3A6813449E
:104150001B781846FFF7F8FD03461A46FB69002B4B
:1041600000DA0F331B11013B07F120010B4413F858
:10417000183C5340DBB23B75FB69023B3A68134481
:104180001B781846FFF7E0FD03467B75FB69013B92
:104190003A6813441B781846FFF7D6FD0346BB75F3
:1041A000FB69043B3A6813441B781846FFF7CCFDC3
:1041B0000346FB750023BB6117E0FA69BB69134432
:1041C0001A463B681344F969BA690A44103A3968D7
:1041D0000A44117807F11400BA69024412784A407F
:1041E000D2B21A70BB690133BB61BB69032BE4DD3A
:1041F000FB690433FB61FB69AF2B89DD00BF20370E
:10420000BD4680BD90B585B000AF78600023FB60EF
:104210000EE0FB687A68D418FB687A6813441B7850
:104220001846FFF791FD03462370FB680133FB60DE
:10423000FB680F2BEDDD00BF1437BD4690BD80B588
:104240008AB000AFF860B9607A6000233B62002357
:104250007B620CE07B6AFA681344197807F110025C
:104260007B6A13440A461A707B6A01337B627B6A5D
:104270000F2BEFDD07F11003002279681846FFF7D6
:1042800073FD01233B6218E007F110031846FFF7A6
:10429000B9FF07F110031846FFF7C1FD07F110033E
:1042A0001846FFF7EBFD07F110033A6A79681846E4
:1042B000FFF75AFD3B6A01333B623B6A092BE3DDA2
:1042C00007F110031846FFF79DFF07F1100318468A
:1042D000FFF7A5FD07F110030A2279681846FFF7DA
:1042E00043FD00237B620BE07B6ABA68134407F14D
:1042F00010017A6A0A4412781A707B6A01337B6271
:104300007B6A0F2BF0DD00BF2837BD4680BD80B52E
:10431000B2B000AFF860B9607A603B6007F1140397
:1043200019467868FFF7D6FE0023C7F8C4300BE0C3
:1043300007F114031A46B968F868FFF780FFD7F849
:10434000C4300133C7F8C430D7F8C4203B689A4260
:10435000EEDB01231846C837BD4680BD80B483B06C
:1043600000AF0346FB71FB79034AD35C18460C3758
:10437000BD465DF8047B70473801002080B483B0EF
:1043800000AF03460A46FB711346BB71FB791B0164
:10439000DAB2BB7903F00F031343174AD25CFB79FF
:1043A00003F0F00343F40071BB7903F00F030B43F8
:1043B0001149CB5C5340DAB2FB791B01DBB243F409
:1043C0008073B9790909C9B20B430B49CB5C5340DF
:1043D000DAB2FB7903F0F00343F44073B9790909C9
:1043E000C9B20B430449CB5C5340DBB218460C37CF
:1043F000BD465DF8047B70473803002080B584B06B
:1044000000AF0346FB71FB791846FFF7A7FF034691
:10441000FB73FA79FB7B11461846FFF7AFFF0346A3
:10442000BB73BB7B1846FFF799FF03467B73FA7992
:104430007B7B11461846FFF7A1FF03463B733B7B8E
:104440001846FFF78BFF0346FB72FA79FB7A114699
:104450001846FFF793FF0346BB72BB7A1846FFF777
:104460007DFF03461846FFF779FF03461846FFF71E
:1044700075FF03461846FFF771FF03467B72FA7A11
:104480007B7A11461846FFF779FF03463B723B7A69
:10449000024AD35C18461037BD4680BD3802002062
:1044A00090B585B000AF786039600023FB600EE006
:1044B000FB687A68D418FB687A6813441B7818463E
:1044C000FFF74CFF03462370FB680133FB60FA687B
:1044D0003B689A42ECDB00BF1437BD4690BD90B5F7
:1044E00089B000AFF860B9607A603B600023FB617F
:1044F00012E0FB697A68D418FB69FA6813441878EB
:10450000FB69BA6813441B781946FFF737FF034667
:104510002370FB690133FB61FA693B689A42E8DB6F
:104520000023FB6145E0FB690133BB613AE002F027
:1045300065FC0346FB75FB69FA6813441878BB6990
:10454000BA6813441B781946FFF718FF03461A464A
:10455000FB7D5340DCB2BB69FA6813441878FB69F1
:10456000BA6813441B781946FFF708FF03466340F7
:10457000BB75FB697A681344FA6979680A44117853
:10458000FA7D4A40D2B21A70BB697A681344BA699C
:1045900079680A441178BA7D4A40D2B21A70BB6970
:1045A0000133BB61BA693B689A42C0DBFB690133E6
:1045B000FB61FA693B689A42B5DB00BF2437BD4610
:1045C00090BD00002DE9F04F99B000AF78633963DA
:1045D0006B467B603A6B531EBB6513464FF000047D
:1045E000E60046EA5376DD0013464FF000044FEA3A
:1045F000C40949EA53794FEAC30813460733DB0875
:10460000DB00ADEB030D6B4600337B65786D3B6BD8
:104610001A46796B03F0B8FD7B6D396B1846FFF7CE
:104620003FFF3A6B531E3B6513464FF00004E10019
:10463000F962F96A41EA5371F962DB00BB62134621
:104640004FF000044FEAC40B4BEA537B4FEAC30A16
:1046500013460733DB08DB00ADEB030D6B4600337D
:10466000FB64786DFA6C3B6B796BFFF738FF3A6B44
:10467000531EBB6413464FF00004E1007962796A6F
:1046800041EA53717962DB003B6213464FF000044C
:10469000E100F961F96941EA5371F961DB00BB613D
:1046A00013460733DB08DB00ADEB030D6B4600332D
:1046B0007B647B6CF96C3A6B184603F065FD7B6C90
:1046C000396B1846FFF7ECFE7B6C396B1846FFF729
:1046D000E7FE3A6B531E3B6413464FF00004E100C3
:1046E0007961796941EA53717961DB003B61134675
:1046F0004FF00004E100F960F96841EA5371F96094
:10470000DB00BB6013460733DB08DB00ADEB030DBA
:104710006B460033FB63F86C796CFA6B3B6BFFF70D
:10472000DEFEFB6B396B1846FFF7BAFEFB6B396B8D
:104730001846FFF7B5FEFB6B396B1846FFF7B0FE66
:10474000FB6B396B1846FFF7ABFE786CF96BFA6CB4
:104750003B6BFFF7C4FEF86C796D3B6B7A6BFFF730
:10476000BEFE0023FB650DE0FB6D7A6B1344FA6D12
:10477000796B0A44127811460E4A525C1A70FB6D2E
:104780000133FB65FA6D3B6B9A42EDDB3B6B03F04B
:104790000103002B06D17B6B1B7883F06303DAB235
:1047A0007B6B1A70D7F804D000BF6437BD46BDE8F4
:1047B000F08F00BF3802002090B585B000AF786060
:1047C0000023FB600EE0FB687A68D418FB687A6807
:1047D00013441B781846FFF711FE03462370FB684D
:1047E0000133FB60FB680F2BEDDD00BF1437BD46C6
:1047F00090BD80B5B6B000AFF860B9607A600023B4
:10480000C7F8D03007F1100319467868FFF762FC4B
:104810000023C7F8D43010E0D7F8D430FA68134436
:10482000197807F1C002D7F8D43013440A461A7039
:10483000D7F8D4300133C7F8D430D7F8D4300F2BA1
:10484000EADD07F1100107F1C00300221846FFF767
:104850008BFA0123C7F8D0301CE007F1C0031846DB
:10486000FFF7AAFF07F1C0031846FFF7D8FA07F1D0
:10487000C0031846FFF702FB07F1100107F1C00360
:10488000D7F8D0201846FFF76FFAD7F8D0300133A9
:10489000C7F8D030D7F8D030092BDEDD07F1C003E0
:1048A0001846FFF7AFFC07F1C0031846FFF7B7FA49
:1048B00007F1100107F1C0030A221846FFF754FA66
:1048C0000023C7F8D4300FE0D7F8D430BA681344C7
:1048D00007F1C001D7F8D4200A4412781A70D7F82B
:1048E000D4300133C7F8D430D7F8D4300F2BEBDDF8
:1048F00000BFD837BD4680BD80B485B000AF7860BA
:1049000039600023FB609AE07B6804331A68FB6817
:1049100013441B78FB727B6804331A68FB681344EA
:104920007A6814321168FA680A4412781A707B683F
:1049300014331A68FB6813447A6824321168FA68E1
:104940000A4412781A707B6824331A68FB6813448F
:104950007A6834321168FA680A4412781A707B68EF
:1049600034331A68FB681344FA7A1A707B68083388
:104970001A68FB6813441B78FB727B6808331A685B
:10498000FB6813447A6828321168FA680A4412787E
:104990001A707B6828331A68FB681344FA7A1A7015
:1049A0007B6818331A68FB6813441B78FB727B68BA
:1049B00018331A68FB6813447A6838321168FA6849
:1049C0000A4412781A707B6838331A68FB681344FB
:1049D000FA7A1A707B680C331A68FB6813441B78E8
:1049E000FB727B680C331A68FB6813447A683C32AC
:1049F0001168FA680A4412781A707B683C331A68A6
:104A0000FB6813447A682C321168FA680A441278F9
:104A10001A707B682C331A68FB6813447A681C325E
:104A20001168FA680A4412781A707B681C331A6895
:104A3000FB681344FA7A1A70FB680133FB60FA686A
:104A40003B689A42FFF660AF00BF1437BD465DF881
:104A5000047B7047B0B588B000AF78603960002340
:104A6000FB6137E10023BB6117E1BB699C00BB69B7
:104A70001B011A467B6813441A68FB6913441B78B0
:104A80001846FFF741F903461D46BB691B01043375
:104A90007A6813441A68FB6913441B781846FFF7B9
:104AA00033F903466B40DAB2BB691B010433796802
:104AB0000B441968FB690B441B785340DAB2BB699D
:104AC0001B01083379680B441968FB690B441B7898
:104AD0005340DAB2BB691B010C3379680B44196887
:104AE000FB690B441B785340DAB207F120032344DF
:104AF00003F8182CBB699B005C1CBB691B011A46A0
:104B00007B6813441A68FB6913441D78BB691B0159
:104B100004337A6813441A68FB6913441B781846F7
:104B2000FFF7F2F803466B40DDB2BB691B010833A7
:104B30007A6813441A68FB6913441B781846FFF718
:104B4000E3F803466B40DAB2BB691B0108337968AE
:104B50000B441968FB690B441B785340DAB2BB69FC
:104B60001B010C3379680B441968FB690B441B78F3
:104B70005340DAB207F12003234403F8182CBB6931
:104B80009B009C1CBB691B011A467B6813441A6876
:104B9000FB6913441A78BB691B01043379680B4421
:104BA0001968FB690B441B785340DDB2BB691B01DC
:104BB00008337A6813441A68FB6913441B78184653
:104BC000FFF7A2F803466B40DDB2BB691B010C3353
:104BD0007A6813441A68FB6913441B781846FFF778
:104BE00093F803466B40DAB2BB691B010C3379685A
:104BF0000B441968FB690B441B785340DAB207F188
:104C00002003234403F8182CBB699B00DC1CBB6900
:104C10001B011A467B6813441A68FB6913441B780E
:104C20001846FFF771F803461946BB691B011A467F
:104C30007B6813441A68FB6913441B784B40DAB253
:104C4000BB691B01043379680B441968FB690B4489
:104C50001B785340DAB2BB691B01083379680B44F7
:104C60001968FB690B441B785340DDB2BB691B011B
:104C70000C337A6813441A68FB6913441B7818468E
:104C8000FFF742F803466B40DAB207F120032344F2
:104C900003F8182CBB690133BB61BB69032B7FF799
:104CA000E4AE0023BB610FE0BB699B007A6813444C
:104CB0001A68FB69134407F10801BA690A441278BB
:104CC0001A70BB690133BB61BB690F2BECDDFB695B
:104CD0000133FB61FA693B689A42FFF6C3AE00BF3D
:104CE0002037BD46B0BD80B487B000AFF860B96072
:104CF0007A603B6000237B6129E000233B611FE079
:104D00007B699B00FA6813441A683B6913447A690B
:104D10009200F9680A4411683A690A4411787A687D
:104D200010017A6902449200B868024410683A6936
:104D3000024412784A40D2B21A703B6901333B6197
:104D40003A693B689A42DBDB7B6901337B617B69B3
:104D50000F2BD2DD00BF1C37BD465DF8047B7047CA
:104D600080B586B000AFF860B9607A6000237B61DF
:104D70000BE07B699B00FA6813441A687B68B9688A
:104D8000104698477B6901337B617B690F2BF0DD0F
:104D900000BF1837BD4680BD90B597B000AFF86032
:104DA000B9607A603B6000233B6500237B6528E0A7
:104DB0003B68184603F0D8F902467B6D9B0007F16B
:104DC00058010B4443F8482C7B6DFA68134418785B
:104DD0007B6D9B0007F15802134453F8483C3A6836
:104DE000194602F078F87B6D9B0007F158021344D6
:104DF00053F8483C3968184602F044F87B6D01339B
:104E00007B657B6D0F2BD3DD07F110003B68002223
:104E10007968FFF768FF01233B651CE007F1100389
:104E2000BA6E39681846FFF79BFF07F1100339681F
:104E30001846FFF761FD07F1100339681846FFF7C0
:104E400009FE07F110003B683A6D7968FFF74BFFE8
:104E50003B6D01333B653B6D092BDFDD07F1100333
:104E6000BA6E39681846FFF77BFF07F110033968FF
:104E70001846FFF741FD07F110003B680A227968E8
:104E8000FFF731FF00237B651CE07B6DBA68D41807
:104E90007B6D9B0007F15802134453F8483C396876
:104EA000184602F056F8034623707B6D9B0007F10D
:104EB0005802134453F8483C184603F05DF97B6DE3
:104EC00001337B657B6D0F2BDFDD00BF5C37BD469B
:104ED00090BD90B5ADF5677D02AF07F10C04206081
:104EE00007F108000160391D0A603A46136007F5B2
:104EF00035723B1D11461868FFF7ECF80023C7F820
:104F00008C332BE03B461B68184603F02DF9014615
:104F100007F11403D7F88C2343F8221007F53572F4
:104F2000D7F88C331344187807F11403D7F88C237F
:104F300053F822103B461A6801F0CDFF07F1140325
:104F4000D7F88C2353F822203B461968104601F00D
:104F500099FFD7F88C330133C7F88C33D7F88C33EB
:104F6000AF2BCFDD03F096F8C7F888030023C7F80E
:104F70008C3314E03B4607F1140407F1080107F1F4
:104F80000C00D7F8A02300921B682246096800682D
:104F9000FFF702FFD7F88C330133C7F88C33D7F80B
:104FA0008C23D7F8A4339A42E4DB03F073F8C7F8F4
:104FB00084030023C7F88C330DE007F11403D7F8FE
:104FC0008C2353F82230184603F0D6F8D7F88C33E8
:104FD0000133C7F88C33D7F88C33AF2BEDDDD7F81E
:104FE0008423D7F88833D31A184607F56577BD466A
:104FF00090BD80B586B000AFF860B9607A600023DC
:105000007B6110E07B699B00FA68134418687B6938
:1050100001339B00FA68134419687B68BA689847A3
:105020007B6902337B617B690F2BEBDD00BF183797
:10503000BD4680BD90B597B000AFF860B9607A60AA
:105040003B6000233B6500237B6528E03B681846F6
:1050500003F08AF802467B6D9B0007F158010B4470
:1050600043F8482C7B6DFA68134418787B6D9B00DD
:1050700007F15802134453F8483C3A68194601F0C6
:105080002AFF7B6D9B0007F15802134453F8483CFC
:105090003968184601F0F6FE7B6D01337B657B6D48
:1050A0000F2BD3DD07F110003B6800227968FFF772
:1050B0001AFE01233B651CE007F11003BA6E396844
:1050C0001846FFF796FF07F1100339681846FFF7F7
:1050D00013FC07F1100339681846FFF7BBFC07F112
:1050E00010003B683A6D7968FFF7FDFD3B6D0133B9
:1050F0003B653B6D092BDFDD07F11003BA6E3968A4
:105100001846FFF776FF07F1100339681846FFF7D6
:10511000F3FB07F110003B680A227968FFF7E3FD13
:1051200000237B651CE07B6DBA68D4187B6D9B0007
:1051300007F15802134453F8483C3968184601F007
:1051400008FF034623707B6D9B0007F15802134450
:1051500053F8483C184603F00FF87B6D01337B652C
:105160007B6D0F2BDFDD00BF5C37BD4690BD90B57A
:10517000ADF5657D02AF07F10C04206007F1080072
:105180000160391D0A603A46136007F535723B1D10
:1051900011461868FEF79EFF0023C7F884332BE002
:1051A0003B461B68184602F0DFFF014607F1140377
:1051B000D7F8842343F8221007F53572D7F88433E3
:1051C0001344187807F11403D7F8842353F82210F6
:1051D0003B461A6801F07FFE07F11403D7F88423D9
:1051E00053F822203B461968104601F04BFED7F8D1
:1051F00084330133C7F88433D7F88433AF2BCFDD42
:105200000023C7F8843314E03B4607F1140407F188
:10521000080107F10C00D7F8982300921B6822467A
:1052200009680068FFF706FFD7F884330133C7F831
:105230008433D7F88423D7F89C339A42E4DB0023E5
:10524000C7F884330DE007F11403D7F8842353F82B
:105250002230184602F090FFD7F884330133C7F8A4
:105260008433D7F88433AF2BEDDD0023184607F5E0
:105270006377BD4690BD80B487B000AFB9607A60F7
:105280003B600346FB7300237B611BE000233B6113
:1052900012E07B691B02BA681A447B691B027968B9
:1052A0001944F87B3B694340C95C3B6913440A4697
:1052B0001A703B6901333B613B69FF2BE9DD7B6978
:1052C00001337B617A693B689A42DFDB00BF1C37A0
:1052D000BD465DF8047B704780B588B000AFF860CC
:1052E000B9607A600023FB6133E00023BB612AE0F0
:1052F00001F084FD0346FB75FB691B02FA681A4442
:10530000FB691B02B9681944BB690B441978FB7D22
:105310004B40D9B2BB6913440A461A707B681B0222
:10532000FA681A447B681B02F9681944BB690B448C
:105330001978FB7D4B40D9B2BB6913440A461A70F9
:10534000BB690133BB61BB69FF2BD1DDFB69013355
:10535000FB61FA697B689A42C7DB00BF2037BD4614
:1053600080BD80B586B000AFB9607A603B6003460F
:10537000FB7300237B610CE07B69BA6813447A6994
:10538000120279681144FA7B8A5C1A707B690133D6
:105390007B617A693B689A42EEDB3968B86801F054
:1053A00071FD00BF1837BD4680BD2DE9F04389B0BF
:1053B00000AFF860B9607A603B606B461E463968A2
:1053C0004B1E7B610B461A464FF000034FEAC32980
:1053D00049EA52594FEAC2280B461A464FF00003D9
:1053E000DD0245EA5255D4020B461B020733DB08A7
:1053F000DB00ADEB030D6B4600333B610023FB612B
:105400002FE0FB69FA681344187839693B687A68B9
:10541000FFF731FF0023BB6116E03B6803F1FF1388
:1054200003F57F431B027A681A443B68013B3969E4
:105430001B021944BB690B441978BB6913440A4623
:105440001A70BB690133BB61BB69FF2BE5DD3969AC
:105450003B68013B1A467868FFF73EFFFB69013362
:10546000FB61FA69BB689A42CBDBB54600BF2437C3
:10547000BD46BDE8F08300002DE9F04186B000AFE5
:10548000786039606A4690463868421EFA60024683
:1054900011464FF00002D60246EA5156CD020246AE
:1054A00011464FF00002D40244EA5154CB020346A5
:1054B0001B020733DB08DB00ADEB030D6B4600334B
:1054C000BB6000233B610BE0204A3B691344197821
:1054D000BA683B6913440A461A703B6901333B6161
:1054E0003B69FF2BF0DD01237B6113E000233B616F
:1054F0000AE0BA687B691B021A443B691344002224
:105500001A703B6901333B613B69FF2BF1DD7B691D
:1055100001337B617A693B689A42E7DB3B68591E3D
:10552000BA683B687868FFF740FF3B68013B7A68E0
:1055300013441878BA683B687968FFF712FFC546CC
:1055400000BF1837BD46BDE8F08100BF380000201D
:105550002DE9F04F8BB000AFF860B9606A467A6011
:10556000B868421EFA61024611464FF000024FEA47
:10557000C22B4BEA515B4FEAC12A024611464FF05B
:1055800000024FEAC22949EA51594FEAC1280246AE
:1055900012020732D208D200ADEB020D6A46003289
:1055A000BA61B868421E7A61024611464FF00002A5
:1055B000D60246EA5156CD02024611464FF000028D
:1055C000D40244EA5154CB0203461B020733DB08E2
:1055D000DB00ADEB030D6B4600333B6100233B6208
:1055E0000BE0274A3B6A13441978BA693B6A1344B3
:1055F0000A461A703B6A01333B623B6AFF2BF0DDBF
:1056000000237B6225E07B6AFA68134418783969C5
:10561000BA697B6A0133FFF72EFE00233B620BE081
:105620007B6A0133BA691B021A443B6A13440022A5
:105630001A703B6A01333B623B6AFF2BF0DDB869AD
:1056400039697B6A01331A46FFF746FE7B6A0133EC
:105650007B62BB685A1E7B6A9A42D4DCBB68013B02
:10566000FA6813441878BA69BB68F968FFF779FEDD
:10567000D7F804D000BF2C37BD46BDE8F08F00BF7F
:105680003800002080B584B000AF78603960012315
:10569000FB6017E001F0B2FBB8607B681A68BB687A
:1056A0005A407B681A60FB689B007A681344FA686A
:1056B000920079680A441168BA684A401A60FB6827
:1056C0000133FB60FA683B689A42E3DB00BF1037A6
:1056D000BD4680BD80B487B000AF78600423BB6056
:1056E00000237B6122E000233B61BB68013BFB6040
:1056F00011E03B691B023B617B69BA6802FB03F264
:10570000FB681344104AD35C1A463B6953403B6123
:10571000FB68013BFB60FB68002BEADA7B687A6977
:10572000396943F822107B6901337B614FF4807241
:10573000BB6892FBF3F27B699A42D4DC00BF1C3752
:10574000BD465DF8047B70473800002080B487B008
:1057500000AFB9607A603B600346FB7300237B6156
:105760001BE000233B6112E07B691B02BA68134413
:105770007A69120279680A44F87B3969414052F823
:1057800021103A6943F822103B6901333B613B69C0
:105790003F2BE9DD7B6901337B617A693B689A4283
:1057A000DFDB00BF1C37BD465DF8047B704780B56A
:1057B00088B000AFF860B9607A600023FB612EE02A
:1057C0000023BB6125E001F019FB7861FB691B0236
:1057D000FA681344FA691202B9680A44B96952F8BE
:1057E00021107A695140BA6943F822107B681B0284
:1057F000FA6813447A681202F9680A44B96952F8DF
:1058000021107A695140BA6943F82210BB6901330B
:10581000BB61BB693F2BD6DDFB690133FB61FA69D4
:105820007B689A42CCDB00BF2037BD4680BD80B587
:1058300086B000AFB9607A603B600346FB7300231B
:105840007B610EE07B699B00BA6813447A6912029F
:1058500079680A44F97B52F821201A607B69013388
:105860007B617A693B689A42ECDB3968B868FFF77C
:1058700009FF00BF1837BD4680BD2DE9F04F9FB02E
:1058800000AFF862B9627A626B463B6004233B6505
:105890003B6D7A6A10461A461346013BFB64134679
:1058A0004FF00004E60046EA5376DD0013463B6203
:1058B0000346013BBB641646334619464FF00002CF
:1058C000786003464FF0000403FB02F501FB04F08F
:1058D0002844A1FB0334021914464FEAC40949EADB
:1058E00053794FEAC308334619464FF000027B68EC
:1058F0004FF0000403FB02F501FB04F02844A1FB78
:10590000033402191446E100F961F96941EA53715F
:10591000F961D900B96133467A6802FB03F30733B2
:10592000DB08DB00ADEB030D6B4600337B64386DA9
:105930007D6A431E3B6403464FF00004E2007A6137
:105940007A6942EA53727A61DB003B6106466B1E5C
:10595000FB63034619464FF000022B464FF000044C
:1059600003FB02FC01FB04FEE644A1FB03340EEB47
:1059700004021446E200FA60FA6842EA5372FA60DE
:10598000DB00BB60034619464FF000022B464FF088
:10599000000403FB02FC01FB04FEE644A1FB03340C
:1059A0000EEB040214464FEAC40B4BEA537B4FEA5A
:1059B000C30A03462A4602FB03F30733DB08DB0076
:1059C000ADEB030D6B460033BB6300237B6720E028
:1059D00000233B6716E07B6F9B00BA6A13441A688A
:1059E0003B6FDB0022FA03F3D9B27A6C7B6F386A23
:1059F00003FB00F31A443B6F13440A461A703B6FD3
:105A000001333B673A6F3B6D9A42E4DB7B6F0133B6
:105A10007B677A6F7B6A9A42DADB0023FB6688E059
:105A2000FB6EFA6A13441B785AB23B6DDBB2013B42
:105A3000DBB25BB213405BB287F837300023BB6642
:105A400021E000237B6617E097F837207B6E5A40F1
:105A5000796CBB6E386A03FB00F30A44134419786F
:105A6000BA6BBB6E03FB06F31A447B6E13440A4603
:105A70001A707B6E01337B667A6E3B6D9A42E3DB74
:105A8000BB6E0133BB66BA6E7B6A9A42D9DB0023D8
:105A90003B660BE0BA6B3B6E134419787A6C3B6E35
:105AA00013440A461A703B6E01333B663A6E3B6DF7
:105AB0009A42EFDB0123FB6534E00023BB652AE05B
:105AC00001F09CF9034687F83630BA6BFB6D03FB97
:105AD00006F31A44BB6D13441A7897F836305340D6
